:04000000FEEF3FF0E0
:10060000003F065B4F666D7D077F6F001CEC05F0B9
:100610000009D8A40EEF03F010EF03F012EF03F07F
:10062000A1EF03F0060E156E130E146EAE0EE82E3B
:10063000FED7142EFCD7152EFAD7186A33EF03F025
:1006400018501B0FD96EDA6ADF50BDEC04F0040EAF
:10065000156E0C0E146E340EE82EFED7142EFCD739
:10066000152EFAD7182A2850185CD8A03AEF03F0B4
:100670003CEF03F020EF03F0196A6FEF03F01A6804
:1006800045EF03F093EC04F01A6E1A28D8B44BEF40
:1006900003F04DEF03F042EF03F01A50BDEC04F00D
:1006A00019501B0FD96EDA6ADF50146E156A1AC022
:1006B00016F0176A16BE17061450161809E11550E1
:1006C0001718D8B466EF03F068EF03F06EEF03F08D
:1006D00064EC04F05EEC05F0A1EF03F0192A285059
:1006E000195CD8A076EF03F078EF03F03FEF03F04A
:1006F0002DEC05F0285009EC05F0090E286083EF79
:1007000003F085EF03F094EF03F0282A090E156E2D
:100710001E0E146EE40EE82EFED7142EFCD7152EF6
:10072000FAD700D0A1EF03F00B0E156E260E146E53
:100730005E0EE82EFED7142EFCD7152EFAD76AEFE0
:1007400003F01200066A02BEAAEF03F0A8EF03F05E
:10075000B0EF03F0016C021ED8B0022A010E066E43
:1007600004BEB7EF03F0B5EF03F0BBEF03F0036C8B
:10077000041ED8B0042A03500410D8B4C2EF03F00A
:10078000C4EF03F0E8EF03F0010E056ECCEF03F0C9
:10079000D89003360436052A04AED1EF03F0D3EF28
:1007A00003F0C8EF03F00350015C04500258D8A0D6
:1007B000DCEF03F0DEEF03F0E2EF03F00350015E45
:1007C0000450025AD89004320332052ED3EF03F0BE
:1007D0000650D8B4EEEF03F0F0EF03F0F4EF03F0BF
:1007E000016C021ED8B0022A01C001F002C002F062
:1007F000120024C001F025C002F026C003F027C07B
:1008000004F02D0E056E7F0E066E950E076E4C0ED3
:10081000086E2FEC04F0010E0124246E000E02205D
:10082000256E000E0320266E000E0420276E24C0C5
:100830000FF025C010F026C011F027C012F0120EE4
:1008400027EF04F0D8901232113210320F32E82E16
:1008500022EF04F00FC00DF010C00EF01200000ED9
:10086000096E000E0A6E000E0B6E000E0C6E01A0DB
:100870003CEF04F03EEF04F046EF04F0055009268B
:1008800006500A2207500B2208500C22D890053639
:10089000063607360836D890043203320232013267
:1008A0000150021003100410D8A459EF04F05BEFBC
:1008B00004F037EF04F009C001F00AC002F00BC0E9
:1008C00003F00CC004F01200000E046E000E036E64
:1008D0008D80020E026E040E016EBA0EE82EFED757
:1008E000012EFCD7022EFAD700D08D90020E026E98
:1008F000040E016EBA0EE82EFED7012EFCD7022E92
:10090000FAD700D0034A042A04BE90EF04F0045042
:1009100009E1030E035CD8A090EF04F092EF04F01D
:1009200068EF04F0120081B098EF04F09AEF04F041
:100930009DEF04F0000EBCEF04F081B2A2EF04F0D2
:10094000A4EF04F0A7EF04F0010EBCEF04F081B4B3
:10095000ACEF04F0AEEF04F0B1EF04F0020EBCEF28
:1009600004F081B6B6EF04F0B8EF04F0BBEF04F08A
:10097000030EBCEF04F0FF0E1200036E03C001F083
:10098000010E026E012AC7EF04F0D8900236012E44
:10099000C5EF04F002508C6E040E026E0C0E016E58
:1009A000340EE82EFED7012EFCD7022EFAD78C6A21
:1009B0001200056E0544E846FC0B0109C26E060EE6
:1009C000E82EFED700D0C282C2B2E9EF04F0EBEF0E
:1009D00004F0E4EF04F0C450046E036AC35003242F
:1009E000016E000E0420026E1200136A13501B0FDA
:1009F000D96EDA6AF9EC03F00D50030BDF6E132A9F
:100A0000080E136406EF05F008EF05F0F6EF04F0AA
:100A10001200086E08C001F0026A000E046E0A0E91
:100A2000036EA2EC03F00150010F076E07C0F6FF42
:100A30000800F5CF8BFF1200010ED9EC04F0025034
:100A40000AE1800E015CD8A028EF05F02BEF05F03D
:100A5000010E2CEF05F0000E12008D80020E026ECA
:100A6000040E016EBA0EE82EFED7012EFCD7022E20
:100A7000FAD700D08D90120000EE1BF00D0EEE6A3A
:100A8000E806FDE1000EF86E060EF76E000156EF67
:100A900005F06BEC05F076EC05F070EC05F073EC0E
:100AA00005F066EC05F05EEC05F0120049EC05F08F
:100AB00006EC03F058EF05F0FEEF3FF0010E286E54
:100AC000000E09EC05F0F5EC04F012009280928221
:100AD0000E0EC16E1200F00E9516F00E8C1612005E
:100AE000946A8B6A120096908D9012000F0E9312EA
:020AF0001200F2
:047FFC003CEF05F061
:020000040030CA
:08000000FF02191EFF8181FFC0
:00000001FF
